:020000040800F2
:100000005004002045010008171300086B10000879
:10001000151300084D020008191700080000000021
:100020000000000000000000000000003B1300087A
:100030004F02000800000000391300083D130008BB
:100040005F0100085F0100085F0100085F01000810
:100050005F0100085F0100085F0100085F01000800
:100060005F0100085F0100085F0100085F010008F0
:100070005F0100085F0100085F0100085F010008E0
:100080005F0100085F0100085F0100085F010008D0
:100090005F0100085F0100085F0100085F010008C0
:1000A0005F0100085F0100085F0100085F010008B0
:1000B0005F0100085F0100085F0100085F010008A0
:1000C0005F0100085F0100085F0100085F01000890
:1000D0005F0100080D1700085F0100085F010008BC
:1000E0005F0100085F0100085F0100085F01000870
:1000F0005F0100085F0100085F0100085F01000860
:100100005F0100085F0100085F0100085F0100084F
:100110005F0100085F0100085F0100085F0100083F
:100120005F0100085F0100085F0100085F0100082F
:10013000DFF80CD000F018F8004800474918000814
:10014000500400200648804706480047FEE7FEE7C7
:10015000FEE7FEE7FEE7FEE7FEE7FEE7FEE7FEE777
:10016000B513000831010008064C074D06E0E068B1
:1001700040F0010394E8070098471034AC42F6D3EE
:10018000FFF7DAFFBC180008DC18000800F08ABF8F
:1001900070B514460D46064608E03046711C8EB216
:1001A00000F007F8641E05F8010BA4B2002CF4D18E
:1001B00070BD10B5044601F003F8200AA02101EB40
:1001C0004000C0B200F0DAFF01F03AF8E0B200F00F
:1001D000D5FF01F035F800F0F3FFA12000F0CEFFCD
:1001E00001F02EF8002000F09DFF044601F008F811
:1001F000204610BD70B516460C46054606E021782F
:10020000284600F007F86D1CADB2641C761EB6B22D
:10021000F5D270BD70B50D46044600F0D1FF200A3E
:10022000A02101EB4000C0B200F0A8FF01F008F8E7
:10023000E0B200F0A3FF01F003F8284600F09EFFB3
:1002400000F0FEFFBDE8704000F0DABFFEE7704747
:1002500031B500F0FDF8044600F0FAF80099001BF3
:100260008842F9D338BD00002DE9F84FDFF8B8A176
:1002700000220AF1040B144601274FF00F090BF17D
:10028000040E00BF0B6807FA04F52B40AB4274D193
:10029000DFF898C14E68A6EB0C0866452BD00DDC44
:1002A000032E34D005DC36B3012E19D0022E2FD107
:1002B0001BE0112E16D0122E2AD119E0B8F5881F96
:1002C00019D006DCB8F5803F15D0B8F5801F1FD1D6
:1002D00011E0B8F5001F0ED0B8F5041F18D10AE0E0
:1002E000CA6815E0CA68121D12E0CA6808320FE039
:1002F000CA680C320CE08A682AB1012A4FF0080261
:1003000003D0456104E0042202E0056100E0002220
:10031000FF2B01D8064601E000F104064FEA8405F0
:1003200001D9A5F12005D6F800C009FA05F82CEA94
:10033000080C02FA05F54CEA050CC6F800C04D6839
:10034000ED006AD53A4DAE6946F00106AE61AD6981
:1003500024F0030605F001050095364D06EB050C6B
:10036000DCF80850A6074FEA167809FA08F6B543F4
:10037000314EB04202D100261AE04EE02F4EB0427C
:1003800001D1012614E02E4EB04201D102260FE029
:100390002C4EB04201D103260AE02B4EB04201D1CF
:1003A000042605E0294EB04201D1052600E00626CC
:1003B00006FA08F62E43CCF808604D68DAF80060BB
:1003C000ED03554601D51E4300E09E432E604D6867
:1003D000AD0305D5DBF800601E43CBF8006004E0F8
:1003E000DBF800509D43CBF800504D68DEF800600C
:1003F000ED02754601D51E4300E09E432E604D6818
:10040000AD0205D5084D0C352E681E432E6004E064
:10041000054E0C3635689D433560641C102CFFF486
:1004200031AFBDE8F88F000000040140000011105A
:10043000001002400000014000080140000C014093
:10044000001001400014014000180140001C014050
:100450000148006870470000000000200248016861
:10046000491C01607047000000000020074810B5DB
:10047000016841F010010160032000F087F80020BE
:1004800000F006F800F016F8002010BD0020024031
:1004900010B5044600F050F94FF47A71B0FBF1F05A
:1004A00000F090FC00222146501E00F04FF8002082
:1004B00010BD00001D4808B5816941F0010181614E
:1004C000806900F001000090032000F05FF8002236
:1004D00011466FF00B0000F039F8002211466FF062
:1004E0000A0000F033F8002211466FF0090000F016
:1004F0002DF800221146501F00F028F80022114666
:10050000101F00F023F800221146901E00F01EF884
:1005100000221146501E00F019F80548416821F0EC
:10052000E06141F00071416008BD00000010024030
:100530000000014000F01F020121914040098000AD
:1005400000F1E020C0F8001170470000F0B40E4B3D
:100550001B680C46C3F30223C3F10705042D00D921
:100560000425191D072901D2002300E0DB1E012606
:1005700006FA05F1491E214099409E40761E16401C
:100580003143F0BC00F0C8BE0CED00E0064900F0BD
:10059000070208684FF6FF03184040EA0220034AAA
:1005A00010430860704700000CED00E00000FA0501
:1005B0002DE9F047DFF8708105460E46D8F80000B7
:1005C00000F00700B0420CD2D8F8001021F007016B
:1005D0003143C8F80010D8F8000000F00700B0421E
:1005E00077D12878514C800705D56068A96820F03C
:1005F000F000084360602878C00759D0696801207E
:1006000001290DD0022929D05FF0020393FAA3F249
:10061000B2FA82F242F02002520904D0226803E0CA
:100620004FF40033F2E7626A93FAA3F3B3FA83F369
:1006300003F01F03984002424BD0606820F0030093
:1006400008436060FFF704FF6968074641F288309D
:1006500001290DD00229814617D025E04FF0007303
:10066000D4E700BFFFF7F4FEC11B494501D918E0EC
:1006700081466068C0F381000128F3D118E000BF13
:10068000FFF7E6FEC11B49450BD86068C0F3810047
:100690000228F5D10CE000BFFFF7DAFEC11B494587
:1006A00002D90320BDE8F087606810F00C0FF3D189
:1006B000D8F80010404601F00701B1420BD901689B
:1006C00021F0070131430160006800F00700B042EB
:1006D00001D00120E6E72878400705D56068E96881
:1006E00020F4E060084360602878000706D5606861
:1006F000296920F4605040EAC100606000F052F8BF
:100700006168F02292FAA2F201F0F001B2FA82F2EC
:10071000D140074A515CC840064908600020FFF7F5
:10072000B7FE0020BEE7000000200240001002409B
:10073000A31800080400002001480068704700006A
:100740000400002008480949006849684FF4E06245
:1007500092FAA2F201F4E061B2FA82F2D140044AC4
:10076000515CC840704700000400002000100240A7
:10077000B318000808480949006849684FF46052F6
:1007800092FAA2F201F46051B2FA82F2D140044A24
:10079000515CC84070470000040000200010024077
:1007A000B318000810B519A385B00FCB8DE80F0062
:1007B0001AA01B4B006804905A681A4802F00C01FA
:1007C00004291DD008291BD14FF4701494FAA4F405
:1007D00002F47011B4FA84F4E140D2031DF8011060
:1007E00010D55A684FF4003393FAA3F302F40032A1
:1007F000B3FA83F3DA4004AB9A5CB0FBF2F04843FF
:1008000005B010BD08484843FAE70000020304059C
:10081000060708090A0B0C0D0E0F1010010200004C
:100820000010024000127A0000093D002DE9F84F47
:1008300004460078F74DC0074FF0010625D06868E0
:100840007704C0F38100012807D06868C0F38100F5
:1008500002281BD16868C00318D597FAA7F0B0FA30
:1008600080F040F02000400901D0286800E0686A6C
:1008700097FAA7F1B1FA81F101F01F0106FA01F12F
:1008800008425ED0606800287CD05AE06068B0F50D
:10089000803F0BD010B1B0F5A02F11D0286820F404
:1008A00080302860286820F4802002E0286840F426
:1008B00080302860606828B3FFF7CAFD80460BE0EF
:1008C000286840F480202860F0E700BFFFF7C0FDF3
:1008D000A0EB0800642871D897FAA7F0B0FA80F06E
:1008E00040F02000400901D0286800E0686A97FACB
:1008F000A7F1B1FA81F101F01F0106FA01F10842F6
:10090000E4D01EE0FFF7A4FD804605E0FFF7A0FD60
:10091000A0EB08006428DED897FAA7F0B0FA80F0C0
:1009200040F02000400901D0286800E0686A97FA8A
:10093000A7F1B1FA81F101F01F0106FA01F10842B5
:10094000E4D12078DFF8D08280074FF000094FF023
:1009500002075BD568684FF0F80B10F00C0F07D05A
:100960006868C0F3810002281CD16868C00319D4EC
:1009700097FAA7F0B0FA80F040F02000400902D0CA
:10098000286801E08BE0686A97FAA7F1B1FA81F173
:1009900001F01F0106FA01F108422CD0206901285C
:1009A0007DD128E0206990B396FAA6F0B0FA80F0E5
:1009B00048F82060FFF74CFD824607E011E100BFD8
:1009C000FFF746FDA0EB0A00022884D897FAA7F0AB
:1009D000B0FA80F040F02000400901D0286800E023
:1009E000686A97FAA7F1B1FA81F101F01F0106FADE
:1009F00001F10842E4D028689BFAABF26169B2FACF
:100A000082F220F0F80091400843286025E0FFE7DB
:100A100096FAA6F1B1FA81F148F82190FFF718FD96
:100A2000824605E0FFF714FDA0EB0A000228CCD8AF
:100A300097FAA7F0B0FA80F040F02000400901D00A
:100A4000286800E0686A97FAA7F1B1FA81F101F02D
:100A50001F0106FA01F10842E4D1207800076ED5A3
:100A6000A069B8B396FAA6F0B0FA80F008EB80005F
:100A7000C0F88064FFF7ECFC824605E0FFF7E8FC75
:100A8000A0EB0A000228A0D897FAA7F0B0FA80F0ED
:100A900040F06000B6EB501F02D128680CE062E124
:100AA00097FAA7F0B0FA80F040F06000B7EB501F63
:100AB00001D1286A00E0686A97FAA7F1B1FA81F1DA
:100AC00001F01F0106FA01F21042D7D00120FFF712
:100AD000BFFB34E0FFE796FAA6F1B1FA81F108EB2B
:100AE0008101C1F88094FFF7B3FC824606E000BFA5
:100AF000FFF7AEFCA0EB0A00022872D897FAA7F025
:100B0000B0FA80F040F06000B6EB501F01D12868C9
:100B10000BE097FAA7F0B0FA80F040F06000B7EB76
:100B2000501F01D1286A00E0686A97FAA7F1B1FA6C
:100B300081F101F01F0106FA01F21042D8D12078AC
:100B4000400765D5E86940F08050E861E869DFF862
:100B5000CCB000F080500090DBF8001041F48071C0
:100B6000CBF80010FFF774FC824605E0FFF770FC3D
:100B7000A0EB0A00642834D8DBF80000C005F5D5E6
:100B8000E06801280AD008B1052813D0286A20F0AF
:100B900001002862286A20F0040002E0286A40F080
:100BA00001002862E06841F2883B90B3FFF750FCF7
:100BB00082460BE0286A40F004002862EEE700BF9E
:100BC000FFF746FCA0EB0A0159450AD897FAA7F0AF
:100BD000B0FA80F040F04000B6EB501F02D1286818
:100BE0000CE0A3E097FAA7F0B0FA80F040F04000E4
:100BF000B7EB501F01D1286A00E0686A97FAA7F1A5
:100C0000B1FA81F101F01F0206FA02F10842D7D0D1
:100C100031E005E000100240000042420070004058
:100C2000FFF716FC824605E0FFF712FCA0EB0A0175
:100C300059457BD897FAA7F0B0FA80F040F0400011
:100C4000B6EB501F01D128680BE097FAA7F0B0FA75
:100C500080F040F04000B7EB501F01D1286A00E05F
:100C6000686A97FAA7F1B1FA81F101F01F0206FA5A
:100C700002F10842D8D1E06980B36968C1F381010B
:100C8000022970D04FF080714F000228484609D0E9
:100C900091FAA1F1B1FA81F148F82100FFF7D8FBF0
:100CA000044669E08A4691FAA1F1B1FA81F1C146A0
:100CB00048F82100FFF7CCFB804605E0FFF7C8FBB2
:100CC000A0EB0800022854D897FAA7F0B0FA80F0F9
:100CD00040F02000400902D0286801E061E0686A25
:100CE00097FAA7F1B1FA81F101F01F0106FA01F1BB
:100CF0000842E3D1206AB0F5803F05D16868A16859
:100D000020F4003008436860D4E9080108436968AA
:100D100021F47411084368609AFAAAF0B0FA80F0DE
:100D200049F82060FFF794FB044606E021E000BF8D
:100D3000FFF78EFB001B02281BD897FAA7F0B0FA2A
:100D400080F040F02000400901D0286800E0686A87
:100D500097FAA7F1B1FA81F101F01F0106FA01F14A
:100D60000842E5D01DE01EE0FFF772FB001B0228E1
:100D700002D90320BDE8F88F97FAA7F0B0FA80F007
:100D800040F02000400901D0286800E0686A97FA26
:100D9000A7F1B1FA81F101F01F0106FA01F1084251
:100DA000E2D10020E6E70120E4E74FF0E02104284B
:100DB000086903D020F004000861704740F0040087
:100DC000FAE7704710B5401EB0F1807F01D30120D3
:100DD00010BD4FF0E02460610F21601700F09CFA15
:100DE0000020A06107202061002010BD10B5FFF792
:100DF000E8FF10BD7047000038B504460068016880
:100E0000C26811F0010F02F4807204D01AB1E16BD4
:100E100041F00101E1630168C1F34002416901F061
:100E2000010122B119B1E26B42F00402E2630268EF
:100E3000C2F3800222B119B1E26B42F00202E26316
:100E40000268C2F3C00222B119B1E16B41F008019E
:100E5000E1630168C068C1F3401100F0200019B1DE
:100E600010B1204600F0CAFA20680168C068C1F3DA
:100E7000C01100F0800019B110B1204600F0CAFB8B
:100E800021680868CA68C0F3801002F0400201259A
:100E900070B16AB1CA68204622F04002CA6094F874
:100EA0003910322911D080F8395000BF00F0DCF839
:100EB000E06B002808D0206801684068009084F842
:100EC00039502046FFF796FF38BD222180F83910AF
:100ED000ECE770B5040004D094F83900002510B197
:100EE00006E0012070BD84F83850204600F020F85C
:100EF000022084F839002068C16821F40051C160E3
:100F0000204600F0CFFA2068016921F49041016188
:100F10002068416921F02A0141612068C16841F4DB
:100F20000051C160E563012084F83900002070BDE4
:100F300010B50068154986B0884225D114488169EA
:100F400041F4804181618069124C00F4804004903A
:100F50004FF4007000900220019003200390694636
:100F60002046FFF781F900212015CDE9000102910B
:100F700069462046FFF778F9002211462520FFF741
:100F8000E5FA2520FFF7D6FA06B010BD003801407B
:100F90000010024000080140704700002DE9F047B2
:100FA000044690F8390099460D46012801D02228C0
:100FB00058D12DB322B394F83800012852D001261D
:100FC00084F838600027E76394F8390022281AD0A3
:100FD0005FF0120084F83900A284E2844FF4805854
:100FE000E08C4B46401EE084A0684FF00002404574
:100FF0004FF08001204613D100F03FFB08BB04E016
:101000000120BDE8F0873220E4E728882168C0F39A
:1010100008004860206908B16D1C08E0AD1C06E0BE
:1010200000F02BFB68B9216815F8010B4860E08CD3
:101030000028D5D14B4600224021204600F01DFB60
:1010400008B10320DDE794F83900322806D084F88F
:10105000396000BF84F838700020D2E7222084F87D
:101060003900F7E70220CCE77047FEE70B4A002083
:10107000C2F8B0010A494B6823F470434B604B68D7
:1010800043F440534B60C2F8AC010121491EFDD12D
:101090000121C2F8B011C2F8B0017047000022422D
:1010A000001001400E4810B5816986B041F0100172
:1010B00081618069012400F0100004904FF4C05059
:1010C000CDE900040320039069460648FFF7CCF8F9
:1010D0000548C0F8B041C0F8AC4106B010BD0000F2
:1010E0000010024000100140000022420B49002382
:1010F000C1F8B0310A48426822F470424260426846
:1011000042F4405242600122C1F8AC211046401E18
:10111000FDD1C1F8B021C1F8B031704700002242C2
:101120000010014070B5024612480024416821F4C5
:1011300070414160416841F4004141600E492046E0
:1011400023460125C1F8B031C1F8B0516406D1F889
:101150002C61240E0EB1641CE4B2401CC0B20828FD
:10116000F0D31AB1FFF782FF204670BDFFF7BEFF34
:10117000FAE70000001001400000224230B50E499D
:101180004A6822F470424A604A6842F440524A6017
:101190000A490023C1F8B0311A460124C509C1F833
:1011A000AC514006000EC1F8B041C1F8B031521C3C
:1011B000D2B2082AF2D330BD001001400000224212
:1011C0000D48416821F470414160416841F440514B
:1011D00041600A490120C1F8AC01C1F8B001032007
:1011E000401EFDD10022C1F8AC210220401EFDD1DD
:1011F000C1F8B021704700000010014000002242F9
:101200000D48416821F470414160416841F440510A
:1012100041600A490020C1F8B001C1F8AC010320C7
:10122000401EFDD10120C1F8B001C1F8AC0102207F
:10123000401EFDD170470000001001400000224216
:10124000104900B54A68002022F470424A604A689A
:1012500042F400424A600C490122C1F8AC21C1F8B5
:10126000B02107E0401CC0B2FA2803D9FFF7C8FF3D
:10127000012000BDD1F82C21002AF3D10020C1F8B3
:10128000B00100BD00100140000022420D4808B529
:10129000816941F020018161816901F020010091A3
:1012A000816941F004018161816901F004010091CB
:1012B000816941F008018161806900F008000090B7
:1012C00008BD0000001002400D4810B50B49016038
:1012D0004FF4E1314160002181600C22C160C0E91E
:1012E00004128161C161FFF7F4FD002805D0BDE85B
:1012F0001040422103A000F010BA10BD0038014098
:101300000C0000202E2E2F5372632F7573617274A0
:101310002E630000FEE770470907090E002806DA71
:1013200000F00F0000F1E02080F8141D704700F17C
:10133000E02080F8001470477047704710B5FFF741
:101340008DF8BDE81040FFF751BD30B58FB00121D9
:101350000804CDE900100024029402250491CDE98F
:1013600007504FF4E01009906846FFF75FFA00B1AC
:10137000FEE70F20CDE90A054FF48060CDE90C406F
:1013800002210AA80E94FFF713F900B1FEE7FFF758
:10139000D3F94FF47A71B0FBF1F0FFF713FD04209D
:1013A000FFF703FD00221146501EFFF7CFF80FB0E4
:1013B00030BD00000D48016841F001010160416845
:1013C0000B4A1140416001680A4A114001600168FE
:1013D00021F480210160416821F4FE0141604FF455
:1013E0001F0181600449C00308607047001002407B
:1013F0000000FFF8FFFFF6FE08ED00E010B590F8E2
:101400003910222903D0322901D0022010BD816871
:10141000B1F5805F11D00169002901681FD04968CA
:1014200001F07F03816A4A1C82620B70C18D491EE4
:101430000904090CC18518D030E00269816A002ACC
:101440000268526805D0D2B20A80816A491C816262
:10145000ECE7C2F308020A80816A891CF7E74A6850
:10146000816A4B1C83620A70E0E70168CA6822F057
:101470002002CA6090F83910322911D00168CA6878
:1014800022F48072CA6001684A6922F001024A614E
:101490005FF0010180F83910FFF77EFD002010BDDC
:1014A0001221F7E72DE9F041044600680169E2687E
:1014B00021F44051114301612169A0680843616929
:1014C00008432168CA6841F20C639A430243CA6028
:1014D00020684169A26921F44071114341614C497E
:1014E00020686425322688423CD1FFF743F900EB9F
:1014F000C00101EB001061688900B0FBF1F7FFF754
:1015000039F900EBC00101EB00106168B0468900B9
:10151000B0FBF1F0B0FBF5F06FF01801484307EBBA
:10152000800106EB0110B0FBF5F000F0F006FFF7CC
:1015300021F900EBC00101EB001061688900B0FBEC
:10154000F1F0B0FBF5F006EB0016FFF713F900EB36
:10155000C00101EB001061688900B0FBF1F7FFF7F3
:1015600009F93BE0FFF7EEF800EBC00101EB0010DA
:1015700061688900B0FBF1F7FFF7E4F800EBC00108
:1015800001EB00106168B0468900B0FBF1F0B0FBE0
:10159000F5F06FF01801484307EB800106EB0110EE
:1015A000B0FBF5F000F0F006FFF7CCF800EBC0015F
:1015B00001EB001061688900B0FBF1F0B0FBF5F0C1
:1015C00006EB0016FFF7BEF800EBC00101EB0010C0
:1015D00061688900B0FBF1F7FFF7B4F800EBC001D8
:1015E00001EB001061688900B0FBF1F0B0FBF5F091
:1015F0006FF01801484307EB800108EB0110B0FBC6
:10160000F5F0216800F00F0030448860BDE8F081FB
:101610000038014090F83910122903D0322901D046
:10162000022070478168B1F5805F016A0BD04A1CC7
:101630000262026809785160C18C491E0904090CD4
:10164000C1840ED017E009880268C1F30801516017
:1016500001690029016A02D0491C0162ECE7891C7A
:10166000FBE70168CA6822F08002CA600068C168AE
:1016700041F04001C160002070472DE9F0471D4650
:1016800090460E460446FEF7E3FE07465FEA080072
:101690004FF000094FF0010808D030E0681C05D079
:1016A00095B1FEF7D5FEC01BA8420DD82068006892
:1016B00036EA0000F2D127E0681C20D025B1FEF701
:1016C000C7FEC01BA8421AD92068C16821F080015A
:1016D000C1602068C16821F02001C1602068C16834
:1016E00021F48071C1602068416921F001014161EC
:1016F00084F8398084F838900320BDE8F0872068AA
:10170000006836EA0000D7D00020F6E70148FFF76E
:1017100073BB00000C000020FEE7FEE70FB4054B92
:1017200010B503A9044A029800F017F810BC5DF840
:1017300014FB0000311800080800002002E008C86F
:10174000121F08C1002AFAD170477047002001E03B
:1017500001C1121F002AFBD170472DE9F84F9946AD
:10176000924688460546002706E025280AD05146BD
:101770004A4690476D1C7F1C28780028F5D13846D2
:10178000BDE8F88F002315F8011F18462E2915D142
:1017900015F8011F04232A290DD06FF02F02297894
:1017A000A1F13004092C09D800EB800002EB4000C5
:1017B00008446D1CF3E758F8040B6D1C2A78002AC6
:1017C000DDD0632A07D0732A0FD0104651464A460F
:1017D00090477F1C2AE018F8042B8DF80020002188
:1017E0008DF801106E46012103E058F8046B4FF0AC
:1017F000FF315A074FF0000401D409E0641C844211
:101800000BDA8C42FADB325D002AF7D105E0641C6A
:101810008C42FCDB305D0028F9D1274404E016F847
:10182000010B51464A469047641EF8D26D1CA3E74F
:1018300013B54FF6FF73012269460248FFF7AEFB6E
:1018400000981CBD0C00002086B0FEF70FFEFFF7CD
:101850007CFDFFF71BFDFFF737FDFEF797FC13221A
:1018600006490020FEF7C6FC132269460020FEF759
:101870008FFC694602A0FFF751FFFEE790180008B1
:1018800052656164206973202573200A0D000000F1
:101890004D696E6953544D333220494943205445B4
:1018A0005354000000000000000000010203040681
:1018B000070809000000000102030400DC1800080A
:1018C000000000200C0000003C170008E818000889
:1018D0000C000020440400004C1700080000000029
:0818E00000A24A040000000010
:0400000508000131BD
:00000001FF
