:020000040800F2
:10000000880400204501000837120008A3100008EA
:10001000351200088D010008951700080000000047
:100020000000000000000000000000005B1200085B
:100030008F01000800000000591200085D1200083E
:100040005F0100085F0100085F0100085F01000810
:100050005F0100085F0100085F0100085F01000800
:100060005F0100085F0100085F0100085F010008F0
:100070005F0100085F0100085F0100085F010008E0
:100080005F0100085F0100085F0100085F010008D0
:100090005F0100085F0100085F0100085F010008C0
:1000A0005F0100085F0100085F0100085F010008B0
:1000B0005F0100085F0100085F0100085F010008A0
:1000C0005F0100085F0100085F0100085F01000890
:1000D0005F010008891700085F0100085F01000840
:1000E0005F0100085F0100085F0100085F01000870
:1000F0005F0100085F0100085F0100085F01000860
:100100005F0100085F0100085F0100085F0100084F
:100110005F0100085F0100085F0100085F0100083F
:100120005F0100085F0100085F0100085F0100082F
:10013000DFF80CD000F018F800480047011800085C
:10014000880400200648804706480047FEE7FEE78F
:10015000FEE7FEE7FEE7FEE7FEE7FEE7FEE7FEE777
:10016000D512000831010008064C074D06E0E06892
:1001700040F0010394E8070098471034AC42F6D3EE
:10018000FFF7DAFF4418000864180008FEE770471C
:1001900031B500F003F9044600F000F90099001BA6
:1001A0008842F9D338BD00002DE9F84FDFF8B8A137
:1001B00000220AF1040B144601274FF00F090BF13E
:1001C000040E00BF0B6807FA04F52B40AB4274D154
:1001D000DFF898C14E68A6EB0C0866452BD00DDC05
:1001E000032E34D005DC36B3012E19D0022E2FD1C8
:1001F0001BE0112E16D0122E2AD119E0B8F5881F57
:1002000019D006DCB8F5803F15D0B8F5801F1FD196
:1002100011E0B8F5001F0ED0B8F5041F18D10AE0A0
:10022000CA6815E0CA68121D12E0CA6808320FE0F9
:10023000CA680C320CE08A682AB1012A4FF0080221
:1002400003D0456104E0042202E0056100E00022E1
:10025000FF2B01D8064601E000F104064FEA8405B1
:1002600001D9A5F12005D6F800C009FA05F82CEA55
:10027000080C02FA05F54CEA050CC6F800C04D68FA
:10028000ED006AD53A4DAE6946F00106AE61AD6942
:1002900024F0030605F001050095364D06EB050C2C
:1002A000DCF80850A6074FEA167809FA08F6B543B5
:1002B000314EB04202D100261AE04EE02F4EB0423D
:1002C00001D1012614E02E4EB04201D102260FE0EA
:1002D0002C4EB04201D103260AE02B4EB04201D190
:1002E000042605E0294EB04201D1052600E006268D
:1002F00006FA08F62E43CCF808604D68DAF800607C
:10030000ED03554601D51E4300E09E432E604D6827
:10031000AD0305D5DBF800601E43CBF8006004E0B8
:10032000DBF800509D43CBF800504D68DEF80060CC
:10033000ED02754601D51E4300E09E432E604D68D8
:10034000AD0205D5084D0C352E681E432E6004E025
:10035000054E0C3635689D433560641C102CFFF447
:1003600031AFBDE8F88F000000040140000011101B
:10037000001002400000014000080140000C014054
:10038000001001400014014000180140001C014011
:100390000AB1016170470904FBE7000001480068E9
:1003A000704700000400002002480168491C0160F9
:1003B0007047000004000020074810B5016841F0B4
:1003C00010010160032000F087F8002000F006F81B
:1003D00000F016F8002010BD0020024010B50446C1
:1003E00000F050F94FF47A71B0FBF1F000F090FC9E
:1003F00000222146501E00F04FF8002010BD0000E2
:100400001D4808B5816941F001018161806900F0F2
:1004100001000090032000F05FF8002211466FF009
:100420000B0000F039F8002211466FF00A0000F0CE
:1004300033F8002211466FF0090000F02DF8002279
:100440001146501F00F028F800221146101F00F03E
:1004500023F800221146901E00F01EF800221146DB
:10046000501E00F019F80548416821F0E06141F0A4
:100470000071416008BD0000001002400000014012
:1004800000F01F02012191404009800000F1E020AE
:10049000C0F8001170470000F0B40E4B1B680C460A
:1004A000C3F30223C3F10705042D00D90425191D48
:1004B000072901D2002300E0DB1E012606FA05F120
:1004C000491E214099409E40761E16403143F0BCA3
:1004D00000F0B2BE0CED00E0064900F0070208682B
:1004E0004FF6FF03184040EA0220034A1043086019
:1004F000704700000CED00E00000FA052DE9F04720
:10050000DFF8708105460E46D8F8000000F00700BD
:10051000B0420CD2D8F8001021F007013143C8F8DE
:100520000010D8F8000000F00700B04277D128781A
:10053000514C800705D56068A96820F0F000084399
:1005400060602878C00759D06968012001290DD062
:10055000022929D05FF0020393FAA3F2B2FA82F2E1
:1005600042F02002520904D0226803E04FF4003325
:10057000F2E7626A93FAA3F3B3FA83F303F01F037B
:10058000984002424BD0606820F00300084360604E
:10059000FFF704FF6968074641F2883001290DD052
:1005A0000229814617D025E04FF00073D4E700BF41
:1005B000FFF7F4FEC11B494501D918E08146606888
:1005C000C0F381000128F3D118E000BFFFF7E6FE79
:1005D000C11B49450BD86068C0F381000228F5D1E2
:1005E0000CE000BFFFF7DAFEC11B494502D903202A
:1005F000BDE8F087606810F00C0FF3D1D8F8001058
:10060000404601F00701B1420BD9016821F0070112
:1006100031430160006800F00700B04201D00120C2
:10062000E6E72878400705D56068E96820F4E060CF
:10063000084360602878000706D56068296920F4BF
:10064000605040EAC100606000F052F86168F0223A
:1006500092FAA2F201F0F001B2FA82F2D140074A16
:10066000515CC840064908600020FFF7B7FE002033
:10067000BEE7000000200240001002402C180008D5
:1006800000000020014800687047000000000020C2
:1006900008480949006849684FF4E06292FAA2F2FA
:1006A00001F4E061B2FA82F2D140044A515CC840E0
:1006B0007047000000000020001002403C180008B5
:1006C00008480949006849684FF4605292FAA2F25A
:1006D00001F46051B2FA82F2D140044A515CC84040
:1006E0007047000000000020001002403C18000885
:1006F00010B519A385B00FCB8DE80F001AA01B4BC6
:10070000006804905A681A4802F00C0104291DD0B0
:1007100008291BD14FF4701494FAA4F402F4701158
:10072000B4FA84F4E140D2031DF8011010D55A68E0
:100730004FF4003393FAA3F302F40032B3FA83F3D5
:10074000DA4004AB9A5CB0FBF2F0484305B010BD50
:1007500008484843FAE700000203040506070809B1
:100760000A0B0C0D0E0F10100102000000100240C9
:1007700000127A0000093D002DE9F84F0446007888
:10078000F74DC0074FF0010625D068687704C0F325
:100790008100012807D06868C0F3810002281BD1BE
:1007A0006868C00318D597FAA7F0B0FA80F040F057
:1007B0002000400901D0286800E0686A97FAA7F194
:1007C000B1FA81F101F01F0106FA01F108425ED091
:1007D000606800287CD05AE06068B0F5803F0BD09C
:1007E00010B1B0F5A02F11D0286820F48030286017
:1007F000286820F4802002E0286840F480302860D7
:10080000606828B3FFF7CAFD80460BE0286840F413
:1008100080202860F0E700BFFFF7C0FDA0EB0800D4
:10082000642871D897FAA7F0B0FA80F040F0200061
:10083000400901D0286800E0686A97FAA7F1B1FA88
:1008400081F101F01F0106FA01F10842E4D01EE037
:10085000FFF7A4FD804605E0FFF7A0FDA0EB080030
:100860006428DED897FAA7F0B0FA80F040F02000B4
:10087000400901D0286800E0686A97FAA7F1B1FA48
:1008800081F101F01F0106FA01F10842E4D120785C
:10089000DFF8D08280074FF000094FF002075BD5E8
:1008A00068684FF0F80B10F00C0F07D06868C0F3C1
:1008B000810002281CD16868C00319D497FAA7F0F8
:1008C000B0FA80F040F02000400902D0286801E032
:1008D0008BE0686A97FAA7F1B1FA81F101F01F0184
:1008E00006FA01F108422CD0206901287DD128E0C8
:1008F000206990B396FAA6F0B0FA80F048F820602C
:10090000FFF74CFD824607E011E100BFFFF746FD0F
:10091000A0EB0A00022884D897FAA7F0B0FA80F07A
:1009200040F02000400901D0286800E0686A97FA8A
:10093000A7F1B1FA81F101F01F0106FA01F10842B5
:10094000E4D028689BFAABF26169B2FA82F220F037
:10095000F80091400843286025E0FFE796FAA6F1E9
:10096000B1FA81F148F82190FFF718FD824605E0C1
:10097000FFF714FDA0EB0A000228CCD897FAA7F0E5
:10098000B0FA80F040F02000400901D0286800E073
:10099000686A97FAA7F1B1FA81F101F01F0106FA2E
:1009A00001F10842E4D1207800076ED5A069B8B300
:1009B00096FAA6F0B0FA80F008EB8000C0F88064E8
:1009C000FFF7ECFC824605E0FFF7E8FCA0EB0A002D
:1009D0000228A0D897FAA7F0B0FA80F040F06000A3
:1009E000B6EB501F02D128680CE062E197FAA7F03D
:1009F000B0FA80F040F06000B7EB501F01D1286AD8
:100A000000E0686A97FAA7F1B1FA81F101F01F01DD
:100A100006FA01F21042D7D00120FFF7B9FB34E00B
:100A2000FFE796FAA6F1B1FA81F108EB8101C1F86E
:100A30008094FFF7B3FC824606E000BFFFF7AEFCF0
:100A4000A0EB0A00022872D897FAA7F0B0FA80F05B
:100A500040F06000B6EB501F01D128680BE097FA18
:100A6000A7F0B0FA80F040F06000B7EB501F01D162
:100A7000286A00E0686A97FAA7F1B1FA81F101F0FB
:100A80001F0106FA01F21042D8D12078400765D53F
:100A9000E86940F08050E861E869DFF8CCB000F028
:100AA00080500090DBF8001041F48071CBF800100A
:100AB000FFF774FC824605E0FFF770FCA0EB0A002C
:100AC000642834D8DBF80000C005F5D5E0680128BB
:100AD0000AD008B1052813D0286A20F00100286246
:100AE000286A20F0040002E0286A40F00100286231
:100AF000E06841F2883B90B3FFF750FC82460BE080
:100B0000286A40F004002862EEE700BFFFF746FCC9
:100B1000A0EB0A0159450AD897FAA7F0B0FA80F07D
:100B200040F04000B6EB501F02D128680CE0A3E073
:100B300097FAA7F0B0FA80F040F04000B7EB501FF2
:100B400001D1286A00E0686A97FAA7F1B1FA81F149
:100B500001F01F0206FA02F10842D7D031E005E0A9
:100B6000001002400000424200700040FFF716FCF7
:100B7000824605E0FFF712FCA0EB0A0159457BD83D
:100B800097FAA7F0B0FA80F040F04000B6EB501FA3
:100B900001D128680BE097FAA7F0B0FA80F040F096
:100BA0004000B7EB501F01D1286A00E0686A97FA4D
:100BB000A7F1B1FA81F101F01F0206FA02F1084231
:100BC000D8D1E06980B36968C1F38101022970D08E
:100BD0004FF080714F000228484609D091FAA1F1E8
:100BE000B1FA81F148F82100FFF7D8FB044669E02B
:100BF0008A4691FAA1F1B1FA81F1C14648F8210083
:100C0000FFF7CCFB804605E0FFF7C8FBA0EB080030
:100C1000022854D897FAA7F0B0FA80F040F02000EC
:100C2000400902D0286801E061E0686A97FAA7F1FC
:100C3000B1FA81F101F01F0106FA01F10842E3D196
:100C4000206AB0F5803F05D16868A16820F40030C3
:100C500008436860D4E908010843696821F4741105
:100C6000084368609AFAAAF0B0FA80F049F8206068
:100C7000FFF794FB044606E021E000BFFFF78EFB80
:100C8000001B02281BD897FAA7F0B0FA80F040F0BA
:100C90002000400901D0286800E0686A97FAA7F1AF
:100CA000B1FA81F101F01F0106FA01F10842E5D025
:100CB0001DE01EE0FFF772FB001B022802D9032093
:100CC000BDE8F88F97FAA7F0B0FA80F040F0200066
:100CD000400901D0286800E0686A97FAA7F1B1FAE4
:100CE00081F101F01F0106FA01F10842E2D1002072
:100CF000E6E70120E4E74FF0E0210428086903D08B
:100D000020F004000861704740F00400FAE77047E3
:100D100010B5401EB0F1807F01D3012010BD4FF00F
:100D2000E02460610F21601700F086FA0020A061C6
:100D300007202061002010BD10B5FFF7E8FF10BDAF
:100D400030B590F83820012A20D0012280F83820D0
:100D5000022380F8393003685C6824F070045C601A
:100D600003685C680D682C435C6003689C6824F031
:100D700080049C6003689C6849680C439C6080F810
:100D80003920002180F83810084630BD022030BDDF
:100D900010B5040003D094F8390010B107E0012029
:100DA00010BD002084F83800204600F00DF8022025
:100DB00084F83900211D206800F0B0FA012084F881
:100DC0003900002010BD000008B50068B0F1804F68
:100DD00008D10548C16941F00101C161C06900F055
:100DE0000100009008BD00000010024070B50446EC
:100DF00090F83800012818D0012584F838500220D6
:100E000084F83900204600F0D5FA2068C16821F046
:100E10004001C1602068C16821F48041C16084F84C
:100E20003950002084F8380070BD022070BD704732
:100E300038B5044600680168C26811F0010F02F479
:100E4000807204D01AB1E16B41F00101E1630168E5
:100E5000C1F34002416901F0010122B119B1E26B15
:100E600042F00402E2630268C2F3800222B119B1C7
:100E7000E26B42F00202E2630268C2F3C00222B1F6
:100E800019B1E16B41F00801E1630168C068C1F389
:100E9000401100F0200019B110B1204600F0ECFA2A
:100EA00020680168C068C1F3C01100F0800019B16A
:100EB00010B1204600F0ECFB21680868CA68C0F356
:100EC000801002F04002012570B16AB1CA68204664
:100ED00022F04002CA6094F83910322911D080F80B
:100EE000395000BF00F0DCF8E06B002808D0206823
:100EF00001684068009084F839502046FFF797FF5A
:100F000038BD222180F83910ECE770B5040004D018
:100F100094F83900002510B106E0012070BD84F876
:100F20003850204600F020F8022084F8390020686C
:100F3000C16821F40051C160204600F0F1FA206838
:100F4000016921F4904101612068416921F02A0181
:100F500041612068C16841F40051C160E56301202E
:100F600084F83900002070BD10B50068154986B0BE
:100F7000884225D11448816941F4804181618069AA
:100F8000124C00F4804004904FF400700090022056
:100F900001900320039069462046FFF705F90021E0
:100FA0002015CDE90001029169462046FFF7FCF8C3
:100FB000002211462520FFF76FFA2520FFF760FA7F
:100FC00006B010BD0038014000100240000801408A
:100FD000704700002DE9F047044690F83900994623
:100FE0000D46012801D0222858D12DB322B394F800
:100FF0003800012852D0012684F838600027E763C2
:1010000094F8390022281AD05FF0120084F83900D1
:10101000A284E2844FF48058E08C4B46401EE0846A
:10102000A0684FF0000240454FF08001204613D1E8
:1010300000F061FB08BB04E00120BDE8F08732202E
:10104000E4E728882168C0F308004860206908B1F7
:101050006D1C08E0AD1C06E000F04DFB68B921688E
:1010600015F8010B4860E08C0028D5D14B460022D2
:101070004021204600F03FFB08B10320DDE794F853
:101080003900322806D084F8396000BF84F83870FF
:101090000020D2E7222084F83900F7E70220CCE7CD
:1010A0007047FEE72DE9F0432E4885B0816941F095
:1010B00020018161816901F020010491816941F081
:1010C00004018161816901F004010491816941F0A9
:1010D00008018161816901F008010491816941F091
:1010E000100181618069204F00F010004FF480747E
:1010F0000490002221463846FFF74AF9DFF86C8059
:101100004FF4C056002231464046FFF741F9DFF860
:101110006090002204214846FFF73AF90094012428
:1011200002256946384603950194FFF73DF8CDE95D
:101130000064694640460395FFF736F8C020CDE9C4
:101140000004694603950B48FFF72EF80420CDE90B
:101150000004694603954846FFF726F805B0BDE848
:10116000F083000000100240000801400010014020
:1011700000140140000C014010B5164888B04FF033
:1011800080410024C0E900144FF6FF71C0E902411C
:101190000461FFF7FDFD18B13E210FA000F0FBFA3E
:1011A000009469460B480194FFF720FE18B14521D1
:1011B00009A000F0F0FA059405A906480694FFF787
:1011C000BFFD002803D04C2103A000F0E4FA08B0D2
:1011D00010BD00004C0000202E2E2F5372632F7480
:1011E000696D2E63000000000D4810B50B490160C9
:1011F0004FF4E1314160002181600C22C160C0E9FF
:1012000004128161C161FFF780FE002805D0BDE8AE
:101210001040422103A000F0BEBA10BD00380140CA
:101220000C0000202E2E2F5372632F757361727481
:101230002E630000FEE770470907090E002806DA52
:1012400000F00F0000F1E02080F8141D704700F15D
:10125000E02080F8001470477047704710B5FFF722
:10126000A3F8BDE81040FFF767BD30B58FB001218E
:101270000804CDE900100024029402250491CDE970
:1012800007504FF4E01009906846FFF775FA00B177
:10129000FEE70F20CDE90A054FF48060CDE90C4050
:1012A00002210AA80E94FFF729F900B1FEE7FFF723
:1012B000E9F94FF47A71B0FBF1F0FFF729FD042052
:1012C000FFF719FD00221146501EFFF7E5F80FB099
:1012D00030BD00000D48016841F001010160416826
:1012E0000B4A1140416001680A4A114001600168DF
:1012F00021F480210160416821F4FE0141604FF436
:101300001F0181600449C00308607047001002405B
:101310000000FFF8FFFFF6FE08ED00E0F0B5026800
:101320001A4B1B4D1B4E1C4F1C4C4FF0804C9842CF
:1013300009D0A04207D0604505D0A84203D0B042F2
:1013400001D0B84204D122F0700E4A6842EA0E027F
:10135000984209D0A04207D0604505D0A84203D0EA
:10136000B04201D0B84203D122F44075CA682A4382
:1013700002608A68C2620A688262984201D0A04212
:1013800001D10969016301214161F0BD002C0140D7
:101390000004004000080040000C00400034014000
:1013A00010B5846842EA032224F47F440A432243AE
:1013B000826010BD30B403689A6822F070044A68F5
:1013C000224322F007040A6822439A604A6812F016
:1013D0000F0F1FD11211082A1CD2DFE802F01B1BCD
:1013E0001B1B0B1D23040B69D1E90221006830BCD3
:1013F000FFF7D6BF0268136A146A24F0010414626E
:1014000002689469096924F0F00444EA01119161C9
:101410000068036230BC70470A698968006830BCA4
:1014200000F006B80A698968006830BC00F011B89D
:1014300010B5036A046A24F001040462846924F08C
:10144000F00444EA021423F00A020A4384610262AF
:1014500010BD10B5036A23F0100303628369046AA8
:1014600023F4704343EA023224F0A00343EA01115B
:101470008261016210BD000010B590F83910222978
:1014800003D0322901D0022010BD8168B1F5805F00
:1014900011D00169002901681FD0496801F07F035C
:1014A000816A4A1C82620B70C18D491E0904090CB5
:1014B000C18518D030E00269816A002A026852684A
:1014C00005D0D2B20A80816A491C8162ECE7C2F37E
:1014D00008020A80816A891CF7E74A68816A4B1C06
:1014E00083620A70E0E70168CA6822F02002CA60DD
:1014F00090F83910322911D00168CA6822F480723C
:10150000CA6001684A6922F001024A615FF0010184
:1015100080F83910FFF75CFD002010BD1221F7E7BD
:101520002DE9F041044600680169E26821F4405168
:10153000114301612169A06808436169084321687A
:10154000CA6841F20C639A430243CA602068416949
:10155000A26921F44071114341614C49206864251E
:10156000322688423CD1FFF7ABF800EBC00101EB1B
:10157000001061688900B0FBF1F7FFF7A1F800EBFC
:10158000C00101EB00106168B0468900B0FBF1F0CA
:10159000B0FBF5F06FF01801484307EB800106EB54
:1015A0000110B0FBF5F000F0F006FFF789F800EB52
:1015B000C00101EB001061688900B0FBF1F0B0FBE5
:1015C000F5F006EB0016FFF77BF800EBC00101EB2E
:1015D000001061688900B0FBF1F7FFF771F83BE09C
:1015E000FFF756F800EBC00101EB001061688900BD
:1015F000B0FBF1F7FFF74CF800EBC00101EB001076
:101600006168B0468900B0FBF1F0B0FBF5F06FF017
:101610001801484307EB800106EB0110B0FBF5F021
:1016200000F0F006FFF734F800EBC00101EB00100A
:1016300061688900B0FBF1F0B0FBF5F006EB001635
:10164000FFF726F800EBC00101EB0010616889008C
:10165000B0FBF1F7FFF71CF800EBC00101EB001045
:1016600061688900B0FBF1F0B0FBF5F06FF0180194
:10167000484307EB800108EB0110B0FBF5F021684F
:1016800000F00F0030448860BDE8F0810038014070
:1016900090F83910122903D0322901D00220704766
:1016A0008168B1F5805F016A0BD04A1C0262026852
:1016B00009785160C18C491E0904090CC1840ED0FF
:1016C00017E009880268C1F3080151600169002927
:1016D000016A02D0491C0162ECE7891CFBE7016842
:1016E000CA6822F08002CA600068C16841F0400107
:1016F000C160002070472DE9F0471D4690460E4618
:101700000446FEF74BFE07465FEA08004FF000096B
:101710004FF0010808D030E0681C05D095B1FEF705
:101720003DFEC01BA8420DD82068006836EA0000C4
:10173000F2D127E0681C20D025B1FEF72FFEC01B98
:10174000A8421AD92068C16821F08001C1602068D0
:10175000C16821F02001C1602068C16821F4807156
:10176000C1602068416921F00101416184F839803C
:1017700084F838900320BDE8F0872068006836EAD6
:101780000000D7D00020F6E70148FFF751BB00006A
:101790000C000020FEE7FEE7014A024900F013B802
:1017A000E91700080800002002E008C8121F08C15D
:1017B000002AFAD170477047002001E001C1121FD2
:1017C000002AFBD170472DE9F04116460F4604462A
:1017D000002503E03946B047641C6D1C20780028C2
:1017E000F8D12846BDE8F08113B54FF6FF7301220A
:1017F00069460248FFF7EEFB00981CBD0C00002074
:10180000FEF7DAFDFFF731FDFFF74CFCFFF7ECFCCC
:10181000FFF7B2FC01A0FFF7BFFFFBE748656C6C68
:101820006F20576F726C6421200A0D0000000000C9
:101830000000000001020304060708090000000080
:101840000102030464180008000000200C000000DE
:10185000A8170008701800080C0000207C04000085
:10186000B817000800A24A040000000000000000B1
:0400000508000131BD
:00000001FF
